S015000041697220636F6E646974696F6E2E737265630C
S11300000C942A000C9447000C9447000C9447006D
S11300100C9447000C9447000C9447000C94C803BC
S11300200C9447000C9447000C9447000C947603FE
S11300300C9447000C9447000C9447000C94470020
S11300400C9469000C9447000C9447000C944700EE
S11300500C94470011241FBECFE5D8E0DEBFCDBF0E
S113006010E0A0E6B0E0E8E0F9E002C005900D92EF
S1130070AE39B107D9F720E0AEE9B0E001C01D9276
S1130080AD3AB207E1F70E944A030C9482040C943F
S113009000003F983E9A3D98389A359A86B1876019
S11300A086B93398379A0895369A349BFECF64B153
S11300B075B144EF51E0649F9001659F300D749FCA
S11300C0300D1124232F26952695FC0120831182BF
S11300D008951F920F920FB60F9211242F933F93FE
S11300E04F935F938F939F9344B155B124EF31E0C5
S11300F0429FC001439F900D529F900D1124892F60
S113010099278695869590939F0080939E009F9152
S11301108F915F914F913F912F910F900FBE0F9050
S11301201F90189541E065E082E00E94C80041E01C
S113013066E082E00E94C8000C940004882319F051
S1130140813041F0089541E065E082E00E942D0194
S113015040E006C040E065E082E00E942D0141E0FD
S113016066E082E00C942D01880F982F990F990F67
S1130170890F90E00C9405040C940F0441E063E0B3
S113018082E00E942D0141E064E082E00C942D01A4
S1130190442379F1413009F05FC0813079F028F0CF
S11301A08230A9F08330E1F008952AB381E090E031
S11301B001C0880F6A95EAF7822B2CC027B381E02F
S11301C090E001C0880F6A95EAF7822B2EC024B311
S11301D081E090E001C0880F6A95EAF7822B30C075
S11301E021B381E090E001C0880F6A95EAF7822B81
S11301F032C0813089F028F08230C9F0833011F1A7
S113020008952AB381E090E001C0880F6A95EAF767
S1130210809582238ABB089527B381E090E001C0D2
S1130220880F6A95EAF78095822387BB089524B3E3
S113023081E090E001C0880F6A95EAF780958223F7
S113024084BB089521B381E090E001C0880F6A95D2
S1130250EAF78095822381BB0895442379F14130E4
S113026009F05FC0813079F028F08230A9F0833042
S1130270E1F008952BB381E090E001C0880F6A9506
S1130280EAF7822B2CC028B381E090E001C0880FEC
S11302906A95EAF7822B2EC025B381E090E001C075
S11302A0880F6A95EAF7822B30C022B381E090E090
S11302B001C0880F6A95EAF7822B32C0813089F039
S11302C028F08230C9F0833011F108952BB381E016
S11302D090E001C0880F6A95EAF7809582238BBB72
S11302E0089528B381E090E001C0880F6A95EAF789
S11302F08095822388BB089525B381E090E001C0F6
S1130300880F6A95EAF78095822385BB089522B306
S113031081E090E001C0880F6A95EAF78095822316
S113032082BB0895CF93C82F40E064E081E00E942F
S11303302D0140E065E081E00E942D0140E066E08F
S113034081E00E942D018BB39C2F907F8F70892BAD
S11303508BBB41E066E081E00E942D018FEC97E0C9
S11303600197F1F700C0000040E066E081E00E94E0
S11303702D012BB330E1C39FC0011124922F9F7034
S1130380892B8BBB41E066E081E00E942D018FEC5C
S113039097E00197F1F700C0000040E066E081E0DB
S11303A00E942D018FE097E20197F1F700C0000051
S11303B0CF91089541E064E081E00E94C80041E0EB
S11303C065E081E00E94C80041E066E081E00E94AF
S11303D0C80041E064E080E00E94C80041E065E0BC
S11303E080E00E94C80041E066E080E00E94C8000E
S11303F041E067E080E00E94C8002FEF80E792E0D0
S1130400215080409040E1F700C0000083E30E9447
S1130410920182E30E94920188E20E9492018CE0A0
S11304200E94920181E00E94920186E00E94920162
S113043082E00C949201CF93C82F41E064E081E004
S11304400E942D0140E065E081E00E942D0140E022
S113045066E081E00E942D018BB39C2F907F8F700A
S1130460892B8BBB41E066E081E00E942D018FEC7B
S113047097E00197F1F700C0000040E066E081E0FA
S11304800E942D012BB330E1C39FC0011124922F90
S11304909F70892B8BBB41E066E081E00E942D01B7
S11304A08FEC97E00197F1F700C0000040E066E0B0
S11304B081E00E942D018FE097E20197F1F700C0DF
S11304C00000CF910895CF93DF9300D0CDB7DEB76E
S11304D090E8998390EC9A83FE01E80FF11D8181E5
S11304E0860F0F900F90DF91CF910C9492010F9390
S11304F01F93CF938C01C0E0F801EC0FF11D8081B4
S1130500882321F00E941B02CF5FF6CFCF911F9169
S11305100F9108954F925F926F927F928F929F9264
S1130520AF92BF92CF92DF92EF92FF924B015C01A8
S113053097FF0BC08DE20E941B02B094A09490948C
S11305408094811C911CA11CB11C61E070E080E0CE
S113055090E03AE0432E512C612C712C81149104CB
S1130560A104B104A9F0AAE0B0E09B01AC010E948F
S113057046046B017C01C501B401A30192010E94F0
S113058027046C0D7D1D8E1D9F1D49015A01E6CF68
S11305902AE0C22ED12CE12CF12C623071058105A8
S11305A091056CF0A70196010E94270449015A01A4
S11305B080E3860F0E941B02B401C501EECFFF90B9
S11305C0EF90DF90CF90BF90AF909F908F907F90EF
S11305D06F905F904F900895FC01808191818B30E2
S11305E0910560F480E00E94B4000E94BE0060E0C7
S11305F081E00E94630280E690E04AC09C012B5097
S113060031092A30310578F483E00E94B40081E096
S11306100E949E000E94BC0060E081E00E94630290
S11306208AE690E035C09C01255131092530310519
S113063078F485E00E94B40081E00E949E000E944C
S1130640BC0060E081E00E94630284E790E020C087
S11306504A97059778F488E00E94B40081E00E94EC
S11306609E000E94BC0060E081E00E9463028EE76D
S113067090E00EC08AE00E94B40081E00E949E00D7
S11306800E94BC0060E081E00E94630288E890E080
S11306900C947702CF93DF9300D0CDB7DEB71A82E4
S11306A019820E94DA010E9472030E949200CE0114
S11306B001960E94740360E080E00E94630282E974
S11306C090E00E94770269817A8180E090E00E9444
S11306D08A0289E990E00E947702CE0101960E9485
S11306E0EC02E5CF0C9449000C9454001F920F9235
S11306F00FB60F9211242F933F934F935F936F93F1
S11307007F938F939F93AF93BF93EF93FF938091C6
S1130710A2009091A300A091A400B091A50001961D
S1130720A11DB11D8093A2009093A300A093A400E7
S1130730B093A5004091A6005091A7006091A80035
S11307407091A90084179507A607B70781F48091D3
S1130750AA0082BF1092A2001092A3001092A400DB
S11307601092A500E091AB00F091AC000995FF91C7
S1130770EF91BF91AF919F918F917F916F915F9115
S11307804F913F912F910F900FBE0F901F9018958E
S11307901F920F920FB60F9211242F933F934F93F2
S11307A05F936F937F938F939F93AF93BF93EF93D5
S11307B0FF938091A0009091A10001968130910552
S11307C029F09093A1008093A00009C01092A10089
S11307D01092A000E091AB00F091AC000995FF915C
S11307E0EF91BF91AF919F918F917F916F915F91A5
S11307F04F913F912F910F900FBE0F901F9018951E
S1130800BB9A83B7886683BF089520E0982F822F10
S113081064E670E00E94130461506CBF089583B7CE
S1130820816083BF0895AA1BBB1B51E107C0AA1FA7
S1130830BB1FA617B70710F0A61BB70B881F991F7D
S11308405A95A9F780959095BC01CD010895052E80
S113085097FB1EF400940E943E0457FD07D00E94AB
S1130860510407FC03D04EF40C943E04509540957B
S1130870309521953F4F4F4F5F4F08959095809548
S1130880709561957F4F8F4F9F4F08950E94730419
S1130890A59F900DB49F900DA49F800D911D1124D0
S11308A00895A1E21A2EAA1BBB1BFD010DC0AA1FAD
S11308B0BB1FEE1FFF1FA217B307E407F50720F0C5
S11308C0A21BB30BE40BF50B661F771F881F991F40
S11308D01A9469F760957095809590959B01AC0189
S11308E0BD01CF010895A29FB001B39FC001A39F92
S11308F0700D811D1124911DB29F700D811D112455
S10B0900911D0895F894FFCF46
S113090846616E3A204F6666200046616E3A332F80
S11309183130200046616E3A352F3130200046616F
S11309286E3A382F3130200046616E3A31302F311B
S1110938300054656D703A200020202020000D
S9030000FC
