S015000041697220636F6E646974696F6E2E737265630C
S11300000C942A000C943C000C943C000C943C008E
S11300100C943C000C943C000C943C000C9437026F
S11300200C943C000C943C000C943C000C94E501B2
S11300300C943C000C943C000C943C000C943C004C
S11300400C9452000C943C000C943C000C943C0026
S11300500C943C0011241FBECFE5D8E0DEBFCDBF19
S113006020E0A0E6B0E001C01D92AF36B207E1F790
S11300700E949C010C9497020C9400003F983E9AB5
S11300803D98389A359A86B1876086B93398379AFD
S11300900895369A349BFECF24B135B1FC013183E7
S11300A0208308951F920F920FB60F9211242F935D
S11300B03F934F935F938F939F9344B155B124EF34
S11300C031E0429FC001439F900D529F900D112437
S11300D0892F992786958695909361008093600077
S11300E09F918F915F914F913F912F910F900FBEF0
S11300F00F901F90189541E063E082E00E94BA00DF
S113010041E064E082E00E94BA000E946F02089518
S1130110882319F0813061F0089541E063E082E0C2
S11301200E942B0140E064E082E00E942B010895CC
S113013040E063E082E00E942B0141E064E082E061
S11301400E942B010895880F982F990F990F890FFA
S113015090E00E94740208950E948402089541E090
S113016063E082E00E942B0141E064E082E00E94AF
S11301702B0108954423B9F1413009F06BC081305B
S113018089F028F08230C9F0833011F108952AB340
S113019081E090E002C0880F991F6A95E2F7822BF4
S11301A08ABB089527B381E090E002C0880F991FAD
S11301B06A95E2F7822B87BB089524B381E090E02F
S11301C002C0880F991F6A95E2F7822B84BB0895B9
S11301D021B381E090E002C0880F991F6A95E2F78D
S11301E0822B81BB0895813091F028F08230D9F0C0
S11301F0833029F108952AB381E090E002C0880F8A
S1130200991F6A95E2F7809582238ABB089527B3E4
S113021081E090E002C0880F991F6A95E2F780950B
S1130220822387BB089524B381E090E002C0880F45
S1130230991F6A95E2F78095822384BB089521B3C0
S113024081E090E002C0880F991F6A95E2F78095DB
S1130250822381BB08954423B9F1413009F06BC076
S1130260813089F028F08230C9F0833011F108958B
S11302702BB381E090E002C0880F991F6A95E2F7E2
S1130280822B8BBB089528B381E090E002C0880FD5
S1130290991F6A95E2F7822B88BB089525B381E004
S11302A090E002C0880F991F6A95E2F7822B85BB04
S11302B0089522B381E090E002C0880F991F6A95E7
S11302C0E2F7822B82BB0895813091F028F08230CE
S11302D0D9F0833029F108952BB381E090E002C076
S11302E0880F991F6A95E2F7809582238BBB089546
S11302F028B381E090E002C0880F991F6A95E2F765
S11303008095822388BB089525B381E090E002C0E4
S1130310880F991F6A95E2F78095822385BB08951B
S113032022B381E090E002C0880F991F6A95E2F73A
S11303308095822382BB0895CF93DF9300D0CDB7FD
S1130340DEB71A8219820E94DF010E947B0080E0DE
S11303500E948800CE0101960E94E20189819A815F
S11303609C012B5031092A30310530F483E00E947E
S1130370A3000E94AC00EECF9C0125513109253029
S1130380310530F485E00E94A3000E94AC00E2CF66
S11303909C012A5131092530310530F488E00E944E
S11303A0A3000E94AC00D6CF4F9730F08AE00E94A1
S11303B0A3000E94AC00CECF0E94AF00CBCF0E941E
S11303C03E0008950E94490008951F920F920FB6AF
S11303D00F9211242F933F934F935F936F937F93C7
S11303E08F939F93AF93BF93EF93FF938091640098
S11303F090916500A0916600B09167000196A11DDF
S1130400B11D8093640090936500A0936600B0933F
S11304106700409168005091690060916A00709192
S11304206B0084179507A607B70781F480916C00C9
S113043082BF1092640010926500109266001092C0
S11304406700E0916D00F0916E000995FF91EF91C6
S1130450BF91AF919F918F917F916F915F914F91D8
S11304603F912F910F900FBE0F901F9018951F92E0
S11304700F920FB60F9211242F933F934F935F93D4
S11304806F937F938F939F93AF93BF93EF93FF9358
S1130490809162009091630001968130910529F06A
S11304A0909363008093620009C0109263001092DD
S11304B06200E0916D00F0916E000995FF91EF915B
S11304C0BF91AF919F918F917F916F915F914F9168
S11304D03F912F910F900FBE0F901F901895BB9ACC
S11304E083B7886683BF089520E030E0382F3695BF
S11304F0279536952795ABE7B4E10E948802969537
S1130500879581508CBF089583B7816083BF089518
S1130510A29FB001B39FC001A39F700D811D112440
S1130520911DB29F700D811D1124911D0895F894A1
S1050530FFCFF7
S9030000FC
